:0C0000000C9487000C9400000C9400008D
:10000C000C9400000C9400000C9400000C94000064
:10001C000C9400000C9400000C9400000C94000054
:10002C000C9400000C9400000C94B6000C9400008E
:10003C000C9400000C9400000C9400000C94000034
:10004C000C9400000C9400000C9400000C94000024
:10005C000C9400000C9400000C9400000C94000014
:10006C000C9400000C9400000C9400000C94000004
:10007C001027E80364000A000100001000011000C2
:10008C000100000000000100000074657B002806E0
:10009C003025640030303025640054696D653A2099
:1000AC00003A0020200046643A256473204D6178A4
:1000BC00573A25646700672020202020202020202C
:1000CC002020004E6F7420656E6F75676820666F18
:1000DC006F642100456E6F75676820666F6F6421D1
:1000EC0020202020200080C0080007008E00030084
:1000FC0000029600020004029A0002001D02F200A7
:10010C000000F894EE27EFBBF1E0F5BFE5BF8DE002
:10011C00A2E0BB27ED938A95E9F780E094E0A0E09C
:10012C00B1E0ED930197E9F7E4EFF0E0859195915B
:10013C00009761F0A591B59105901590BF01F00164
:10014C0005900D920197E1F7FB01F0CFE0E0EEBBDB
:10015C00EFEFEDBFE4E0EEBFC0E0D2E00C942A027A
:10016C006A937A938A939A93AA93BA93EA93FA939B
:10017C00EFB7EA93ADE0B2E0EDD3A0910D02B091F0
:10018C000E0280910F0290911002F1D350F1E0E039
:10019C00E0930D02E0930E02E0930F02E093100245
:1001AC00A1E1B2E0D7D3EBD3F3D3D8F0E0E0E09306
:1001BC001102E0931202E0931302E0931402A5E102
:1001CC00B2E0C8D3EDD3E4D360F0E0E0E0931502E5
:1001DC00E0931602E0931702E0931802A9E1B2E053
:1001EC00B9D3E991EFBFF991E991B991A99199919D
:1001FC00899179916991189524971A930A930B9A7E
:10020C00139A1298E0E0EA83EB83EC83ED830B986E
:10021C000399FECF00E010E00831E0E01E0780F407
:10022C00129AC7D3CBD3CFD31298039B06C0C1D39A
:10023C00EF5FFF4F6F4F7F4FC6D30F5F1F4FECCF5A
:10024C00129AAA81BB818C819D81E0E0F0E060E88C
:10025C0070E0EA27FB2768277927B5D31298A9D332
:10026C001981088126960895C7DFE0930802F09360
:10027C00090260930A0270930B02A0910002B091E4
:10028C0001028091020290910302EA1BFB0B680BA6
:10029C00790BDF01CB01E0910402F0910502609132
:1002AC000602709107027BD4DF01CB0187D390D378
:1002BC00E2E0F0E060E070E072D4DE2EEF2E00247D
:1002CC00D014E00414F4DD24EE240895BB2041F096
:1002DC0084D3E0E389D3E0E687D3E0EC85D307C091
:1002EC007CD3E0EC87D3E0E685D3E0E383D30895B9
:1002FC0085D318F4ECE9F0E002C0EDE9F0E0FA93F4
:10030C00EA9389D31CC07AD318F4E0EAF0E014C065
:10031C0088D3A436E0E0BE07E0E08E07E0E09E075D
:10032C0018F4E1EAF0E008C07CD321D318F4ECE92E
:10033C00F0E002C0EDE9F0E0FA93EA936CD3249676
:10034C00089574D39CD3A1D3E2EBF0E0FA93EA9333
:10035C00E52DF62D9ED3E32DF42D9BD388E0BAD258
:10036C002A96089563D307C09AD3EFECF0E003C04C
:10037C0096D3E0EEF0E0FA93EA9380E0ABD22296CB
:10038C0084D3AD2DBE2D8B2F880F880B982FBBDF00
:10039C00E2ECF0E074D30895CC2011F4D2DF02C06B
:1003AC0063DFE0DF08954D990DC0AEE1B0E016D4E7
:1003BC004D9908C04D9BFECFCC2019F4E1E0CE2E18
:1003CC0001C0CC240895E72DF82DD9D266277727C4
:1003DC00EA17FB0768077907B1F590901102A09016
:1003EC001202750C861CECE3F0E07E168F0628F0EA
:1003FC00E72DF82DFC977E2E8F2E36DFD314E404D8
:10040C00DCF451D356D3A0F4A895AEDF4CD3A33073
:10041C00E0E0BE07E0E08E07E0E09E0718F0E1E0C8
:10042C00E0930C02E0910C02E03009F44FDFE9CFCD
:10043C00E0E0E0930C0206C036D33BD318F4A89549
:10044C0097DFFACFBAD00895E4E6F0E03E2E4F2EB7
:10045C00E4E1F0E05E2E6F2E752C862C07D078949C
:10046C00A895B1DFA0DF98DFFBCFFFCFE0E8E093EA
:10047C006100E0E0E0936100E4E0E1B9E0E0E2B9C2
:10048C00E0EFE4B9E0E0E5B9E7B9E8B9E0E4EAB9EE
:10049C00E0E2EBB9E0E0E4BDE5BDE6BDE7BDE8BDFB
:1004AC00E0938000EDE0E0938100E0E0E0938500D4
:1004BC00E0938400E0938700E0938600E09389004A
:1004CC00E4E1E0938800E0E0E093B600E093B00054
:1004DC00E093B100E093B200E093B300E093B4007A
:1004EC00E0936E00E2E0E0936F00E0E0E0937000D8
:1004FC00E0936900EDBBE0936800E093C100E093EA
:10050C00C900E0E8E0BFE0E0E0937B00E0937F000F
:10051C00E0937A00ECBDE093BC00A0E178D0A89504
:10052C00E0916000E861E0936000E6ECE09360002D
:10053C0008951A931A2F14FF02C0439A01C04398CE
:10054C0015FF02C0449A01C0449816FF02C0459A98
:10055C0001C0459817FF02C0469A01C0469881E237
:10056C008A95F1F7429A81E28A95F1F7429881E2F5
:10057C008A95F1F777C0AA93A881DBDFE881E29531
:10058C00E883A881D6DF8AEF90E00197F1F72196F6
:10059C0008951A930A931A2F0A81E12FF0E0E35E73
:1005AC00FD4FE081E00FAE2FE6DF009321021093A8
:1005BC0022021981088123960895A2E082D2ACE030
:1005CC00DADFA1E07ED2E0E0E0932202E0932102A8
:1005DC0008951A931A2F1A3031F0E0912302A0914A
:1005EC002102AE1750F0E0E0EA93A0912202AF5F37
:1005FC00A0932202CEDF1A30A9F1E0912102EF5F25
:10060C00E0932102409AA12FB6DF40982BC01A9399
:10061C001A2F3B9A3C9A3D9A3E9A3A9A389A399AB2
:10062C0042984098419810932302E12FE058E093B0
:10063C001F02E12FE054E0932002A4E1B0E0CED2FF
:10064C0044D243D242D2A0E274DF84EF91E001970E
:10065C00F1F7A8E290DFA4E08EDFA5E88CDFA6E03E
:10066C008ADFABDF19910895BA93AA93269751D2DA
:10067C0010E0AC85BD85E0E0F0E0ED93FC93EA89F9
:10068C00FB893196EA8BFB8B3197E4912E2FE0306E
:10069C0009F40BC1E12FE03031F4253211F411E0F3
:1006AC0001C01AD201C1E130A1F4253211F414D2E7
:1006BC00FAC012E040E000E02D3211F401E0F4C089
:1006CC002B3211F44BE2F0C0203211F440E2ECC0BA
:1006DC0002C0E23039F450E013E0203311F400682A
:1006EC00E3C003C0E33009F0DFC0203310F02A333D
:1006FC0008F007C0AAE05A9F502DE22FE0535E0F7E
:10070C00D3C0E22FE33639F4EED1E889F989A4811C
:10071C00AA93EFD1C8C0E33729F4E5D1F0D101D1C8
:10072C001E2F07C0E03749F4DED1E9D106D11E2FC8
:10073C00086002600F7730E03AC0E43611F0E93619
:10074C0011F4046002C0E53731F4ECE7F0E0EE831D
:10075C00FF8315E00CC0E83511F4086003C0E837DE
:10076C0009F0A1C0E6E8F0E0EE83FF8314E002FF9D
:10077C0015C0B9D1A889B9891496ED91FD91EA8774
:10078C00FB87AB85AA2322F4D2D1EA87FB874DE203
:10079C00403011F01F5F01C00B7F09C0A4D1A889A4
:1007AC00B9891496ED91FC911197EA87FB8700FDAE
:1007BC0010C0151770F407FF08C002FF04C00B7FB0
:1007CC00242F115001C020E301C020E285D15150EB
:1007DC00F0CF312F01FF16C0303099F003FF06C067
:1007EC00EE81FF812591EE83FF8305C0AE81BF8131
:1007FC002D91AE83BF8370D1503009F051503150E0
:10080C00EBCF48C020E3EE81FF81DAD1E887F9878E
:10081C00EE81FF813296EE83FF83E885F985AA8508
:10082C00BB85AE17BF0750F02F5FA885B985EA8549
:10083C00FB85EA1BFB0BEA87FB87EFCF2A3328F0FB
:10084C0003FF02C0295F01C0295D04FD19C02133DB
:10085C0020F4A885B985119709F409C0531710F035
:10086C0000FF01C011C020E207FF0AC020E30061B5
:10087C0002FF06C00B7F4A933CD1503009F0515017
:10088C002BD1503009F051503150A885B9851297B1
:10089C0008F0B8CF00FF07C0503029F05150E0E20B
:1008AC00EA9327D1F9CF10E0EACEAC85BD85ED9166
:1008BC00FD9136D1649608952ED18D013C81A32FE4
:1008CC0088DED801ED91FD913196FE93EE932AD1FD
:1008DC0025960895FF92F82E26971A930A93DE0117
:1008EC0014960024AF0DB01D8D01E0E0EC83ED8378
:1008FC00EE83EF83DE0118960024AF0DB01DED9151
:10090C00FD91FA93EA931A930A93E2E6F4E0FA93D0
:10091C00EA93DE011896A8DE198108812896FF90CB
:10092C000895BA93AA93A991B991EE27FF276D91D7
:10093C00662311F03196FBCF0895BA93AA93AA2798
:10094C00BB27E991F9910590002011F01196FBCF8E
:10095C00FD010895ED91FD916D917D91EF5FFF4F3C
:10096C006F4F7F4F7E936E93FE93EE930895A83E48
:10097C00E3E0BE07E0E08E07E0E09E070895A0915B
:10098C001102B091120280911302909114020895F9
:10099C00AC33E0E0BE07E0E08E07E0E09E07089590
:1009AC00A0911502B0911602809117029091180235
:1009BC000895EA81FB816C817D810895EE0FFF1F04
:1009CC00661F771F0895EA83FB836C837D830895EC
:1009DC00AE1BBF0B860B970B0895E0E9E5B984EDD0
:1009EC0090E30197F1F70895E5B984ED90E3019751
:1009FC00F1F70895E5B9A4ECB9E0F0C0EAD0A8810C
:100A0C00B9818A819B81AA30E0E0BE07E0E08E07C5
:100A1C00E0E09E070895CDDFD7D084E05BDF26961B
:100A2C000895A881B9818A819B810895E0E0EA93B9
:100A3C00A0E0AFDDE6EAF0E0FA93EA9380E04ADF6B
:100A4C002296A0911902B0911A0280911B029091EA
:100A5C001C024EDCEDEAF0E0FA93EA9380E03ADF18
:100A6C0022969EDF45DCEDEAF0E0FA93EA9380E013
:100A7C0031DF229684DF3CDCEFEAF0E00895FA9354
:100A8C00EA9380E027DF22960895E0E0EA93A1E064
:100A9C0080CD6F2F660F660B762F96D00895E0E011
:100AAC00EA93A0E076CDE92DFA2D69DF662777274A
:100ABC008FCFA530E0E0BE07E0E08E07E0E09E07B8
:100ACC00089559DDA3E0B0E089C0A0E332DD84EFE6
:100ADC0091E00197F1F708952A93AD85BE85EF85D6
:100AEC00F88909950895E889F9893497E88BF98B89
:100AFC000895AD85BE85EF85F88909950895A88977
:100B0C00B9891496ED91FD91EE83FF83AE81BF817F
:100B1C0008955A934A933A932A931A930A930895F1
:100B2C005D814C813B812A81198108810895F19561
:100B3C00E195F0400895F09560957095E195FF4F23
:100B4C006F4F7F4F0895B09580959095A195BF4FAD
:100B5C008F4F9F4F08953F934F935F930024112421
:100B6C00A00130E2AA0FBB1F881F991F001C111C8B
:100B7C00441F551F0E1A1F0A460B570B28F40E0E56
:100B8C001F1E461F571F01C0A1603A9559F7FD0162
:100B9C00BC01D001CA015F914F913F91089504D0DF
:100BAC00DADF0EF4C8DF0895E89477FF02C0C3DFE4
:100BBC00689497FF04C0C7DF00F8039400FA089507
:100BCC000590F491E02D08957A936A93FA93EA9341
:100BDC0008959A938A93BA93AA930895109639F02C
:100BEC00A89588E893E10197F1F71197C9F7089553
:00000001FF
